{
  "_format": "hh-sol-artifact-1",
  "contractName": "Token",
  "sourceName": "contracts/Token.sol",
  "abi": [
    {
      "inputs": [],
      "stateMutability": "nonpayable",
      "type": "constructor"
    },
    {
      "inputs": [
        {
          "internalType": "address",
          "name": "sender",
          "type": "address"
        },
        {
          "internalType": "uint256",
          "name": "tokenId",
          "type": "uint256"
        },
        {
          "internalType": "address",
          "name": "owner",
          "type": "address"
        }
      ],
      "name": "ERC721IncorrectOwner",
      "type": "error"
    },
    {
      "inputs": [
        {
          "internalType": "address",
          "name": "operator",
          "type": "address"
        },
        {
          "internalType": "uint256",
          "name": "tokenId",
          "type": "uint256"
        }
      ],
      "name": "ERC721InsufficientApproval",
      "type": "error"
    },
    {
      "inputs": [
        {
          "internalType": "address",
          "name": "approver",
          "type": "address"
        }
      ],
      "name": "ERC721InvalidApprover",
      "type": "error"
    },
    {
      "inputs": [
        {
          "internalType": "address",
          "name": "operator",
          "type": "address"
        }
      ],
      "name": "ERC721InvalidOperator",
      "type": "error"
    },
    {
      "inputs": [
        {
          "internalType": "address",
          "name": "owner",
          "type": "address"
        }
      ],
      "name": "ERC721InvalidOwner",
      "type": "error"
    },
    {
      "inputs": [
        {
          "internalType": "address",
          "name": "receiver",
          "type": "address"
        }
      ],
      "name": "ERC721InvalidReceiver",
      "type": "error"
    },
    {
      "inputs": [
        {
          "internalType": "address",
          "name": "sender",
          "type": "address"
        }
      ],
      "name": "ERC721InvalidSender",
      "type": "error"
    },
    {
      "inputs": [
        {
          "internalType": "uint256",
          "name": "tokenId",
          "type": "uint256"
        }
      ],
      "name": "ERC721NonexistentToken",
      "type": "error"
    },
    {
      "inputs": [
        {
          "internalType": "address",
          "name": "owner",
          "type": "address"
        }
      ],
      "name": "OwnableInvalidOwner",
      "type": "error"
    },
    {
      "inputs": [
        {
          "internalType": "address",
          "name": "account",
          "type": "address"
        }
      ],
      "name": "OwnableUnauthorizedAccount",
      "type": "error"
    },
    {
      "anonymous": false,
      "inputs": [
        {
          "indexed": true,
          "internalType": "address",
          "name": "owner",
          "type": "address"
        },
        {
          "indexed": true,
          "internalType": "address",
          "name": "approved",
          "type": "address"
        },
        {
          "indexed": true,
          "internalType": "uint256",
          "name": "tokenId",
          "type": "uint256"
        }
      ],
      "name": "Approval",
      "type": "event"
    },
    {
      "anonymous": false,
      "inputs": [
        {
          "indexed": true,
          "internalType": "address",
          "name": "owner",
          "type": "address"
        },
        {
          "indexed": true,
          "internalType": "address",
          "name": "operator",
          "type": "address"
        },
        {
          "indexed": false,
          "internalType": "bool",
          "name": "approved",
          "type": "bool"
        }
      ],
      "name": "ApprovalForAll",
      "type": "event"
    },
    {
      "anonymous": false,
      "inputs": [
        {
          "indexed": false,
          "internalType": "uint256",
          "name": "_fromTokenId",
          "type": "uint256"
        },
        {
          "indexed": false,
          "internalType": "uint256",
          "name": "_toTokenId",
          "type": "uint256"
        }
      ],
      "name": "BatchMetadataUpdate",
      "type": "event"
    },
    {
      "anonymous": false,
      "inputs": [
        {
          "indexed": false,
          "internalType": "uint256",
          "name": "_tokenId",
          "type": "uint256"
        }
      ],
      "name": "MetadataUpdate",
      "type": "event"
    },
    {
      "anonymous": false,
      "inputs": [
        {
          "indexed": true,
          "internalType": "address",
          "name": "previousOwner",
          "type": "address"
        },
        {
          "indexed": true,
          "internalType": "address",
          "name": "newOwner",
          "type": "address"
        }
      ],
      "name": "OwnershipTransferred",
      "type": "event"
    },
    {
      "anonymous": false,
      "inputs": [
        {
          "indexed": true,
          "internalType": "address",
          "name": "from",
          "type": "address"
        },
        {
          "indexed": true,
          "internalType": "address",
          "name": "to",
          "type": "address"
        },
        {
          "indexed": true,
          "internalType": "uint256",
          "name": "tokenId",
          "type": "uint256"
        }
      ],
      "name": "Transfer",
      "type": "event"
    },
    {
      "inputs": [
        {
          "internalType": "address",
          "name": "to",
          "type": "address"
        },
        {
          "internalType": "uint256",
          "name": "tokenId",
          "type": "uint256"
        }
      ],
      "name": "approve",
      "outputs": [],
      "stateMutability": "nonpayable",
      "type": "function"
    },
    {
      "inputs": [
        {
          "internalType": "address",
          "name": "owner",
          "type": "address"
        }
      ],
      "name": "balanceOf",
      "outputs": [
        {
          "internalType": "uint256",
          "name": "",
          "type": "uint256"
        }
      ],
      "stateMutability": "view",
      "type": "function"
    },
    {
      "inputs": [
        {
          "internalType": "uint256",
          "name": "tokenId",
          "type": "uint256"
        }
      ],
      "name": "getApproved",
      "outputs": [
        {
          "internalType": "address",
          "name": "",
          "type": "address"
        }
      ],
      "stateMutability": "view",
      "type": "function"
    },
    {
      "inputs": [
        {
          "internalType": "address",
          "name": "owner",
          "type": "address"
        },
        {
          "internalType": "address",
          "name": "operator",
          "type": "address"
        }
      ],
      "name": "isApprovedForAll",
      "outputs": [
        {
          "internalType": "bool",
          "name": "",
          "type": "bool"
        }
      ],
      "stateMutability": "view",
      "type": "function"
    },
    {
      "inputs": [
        {
          "internalType": "address",
          "name": "_user",
          "type": "address"
        },
        {
          "internalType": "address",
          "name": "_companyId",
          "type": "address"
        },
        {
          "internalType": "uint256",
          "name": "_serviceId",
          "type": "uint256"
        },
        {
          "internalType": "string",
          "name": "_metadataURI",
          "type": "string"
        }
      ],
      "name": "mintToken",
      "outputs": [],
      "stateMutability": "nonpayable",
      "type": "function"
    },
    {
      "inputs": [],
      "name": "name",
      "outputs": [
        {
          "internalType": "string",
          "name": "",
          "type": "string"
        }
      ],
      "stateMutability": "view",
      "type": "function"
    },
    {
      "inputs": [],
      "name": "owner",
      "outputs": [
        {
          "internalType": "address",
          "name": "",
          "type": "address"
        }
      ],
      "stateMutability": "view",
      "type": "function"
    },
    {
      "inputs": [
        {
          "internalType": "uint256",
          "name": "tokenId",
          "type": "uint256"
        }
      ],
      "name": "ownerOf",
      "outputs": [
        {
          "internalType": "address",
          "name": "",
          "type": "address"
        }
      ],
      "stateMutability": "view",
      "type": "function"
    },
    {
      "inputs": [
        {
          "internalType": "address",
          "name": "tokenOwner",
          "type": "address"
        }
      ],
      "name": "ownerOfTokenIds",
      "outputs": [
        {
          "internalType": "uint256[]",
          "name": "",
          "type": "uint256[]"
        }
      ],
      "stateMutability": "view",
      "type": "function"
    },
    {
      "inputs": [],
      "name": "renounceOwnership",
      "outputs": [],
      "stateMutability": "nonpayable",
      "type": "function"
    },
    {
      "inputs": [
        {
          "internalType": "address",
          "name": "from",
          "type": "address"
        },
        {
          "internalType": "address",
          "name": "to",
          "type": "address"
        },
        {
          "internalType": "uint256",
          "name": "tokenId",
          "type": "uint256"
        }
      ],
      "name": "safeTransferFrom",
      "outputs": [],
      "stateMutability": "nonpayable",
      "type": "function"
    },
    {
      "inputs": [
        {
          "internalType": "address",
          "name": "from",
          "type": "address"
        },
        {
          "internalType": "address",
          "name": "to",
          "type": "address"
        },
        {
          "internalType": "uint256",
          "name": "tokenId",
          "type": "uint256"
        },
        {
          "internalType": "bytes",
          "name": "data",
          "type": "bytes"
        }
      ],
      "name": "safeTransferFrom",
      "outputs": [],
      "stateMutability": "nonpayable",
      "type": "function"
    },
    {
      "inputs": [
        {
          "internalType": "address",
          "name": "operator",
          "type": "address"
        },
        {
          "internalType": "bool",
          "name": "approved",
          "type": "bool"
        }
      ],
      "name": "setApprovalForAll",
      "outputs": [],
      "stateMutability": "nonpayable",
      "type": "function"
    },
    {
      "inputs": [
        {
          "internalType": "bytes4",
          "name": "interfaceId",
          "type": "bytes4"
        }
      ],
      "name": "supportsInterface",
      "outputs": [
        {
          "internalType": "bool",
          "name": "",
          "type": "bool"
        }
      ],
      "stateMutability": "view",
      "type": "function"
    },
    {
      "inputs": [],
      "name": "symbol",
      "outputs": [
        {
          "internalType": "string",
          "name": "",
          "type": "string"
        }
      ],
      "stateMutability": "view",
      "type": "function"
    },
    {
      "inputs": [
        {
          "internalType": "uint256",
          "name": "tokenId",
          "type": "uint256"
        }
      ],
      "name": "tokenURI",
      "outputs": [
        {
          "internalType": "string",
          "name": "",
          "type": "string"
        }
      ],
      "stateMutability": "view",
      "type": "function"
    },
    {
      "inputs": [
        {
          "internalType": "address",
          "name": "from",
          "type": "address"
        },
        {
          "internalType": "address",
          "name": "to",
          "type": "address"
        },
        {
          "internalType": "uint256",
          "name": "tokenId",
          "type": "uint256"
        }
      ],
      "name": "transferFrom",
      "outputs": [],
      "stateMutability": "nonpayable",
      "type": "function"
    },
    {
      "inputs": [
        {
          "internalType": "address",
          "name": "newOwner",
          "type": "address"
        }
      ],
      "name": "transferOwnership",
      "outputs": [],
      "stateMutability": "nonpayable",
      "type": "function"
    }
  ],
  "bytecode": "0x60806040526000600960006101000a81548160ff021916908360ff1602179055506001600960016101000a81548160ff021916908360ff1602179055506002600960026101000a81548160ff021916908360ff1602179055503480156200006557600080fd5b50336040518060400160405280601781526020017f536f756c20426f756e642052657669657720546f6b656e0000000000000000008152506040518060400160405280600481526020017f53425254000000000000000000000000000000000000000000000000000000008152508160009081620000e49190620004d0565b508060019081620000f69190620004d0565b505050600073ffffffffffffffffffffffffffffffffffffffff168173ffffffffffffffffffffffffffffffffffffffff16036200016e5760006040517f1e4fbdf7000000000000000000000000000000000000000000000000000000008152600401620001659190620005fc565b60405180910390fd5b6200017f816200019060201b60201c565b50620a2bdb60088190555062000619565b6000600760009054906101000a900473ffffffffffffffffffffffffffffffffffffffff16905081600760006101000a81548173ffffffffffffffffffffffffffffffffffffffff021916908373ffffffffffffffffffffffffffffffffffffffff1602179055508173ffffffffffffffffffffffffffffffffffffffff168173ffffffffffffffffffffffffffffffffffffffff167f8be0079c531659141344cd1fd0a4f28419497f9722a3daafe3b4186f6b6457e060405160405180910390a35050565b600081519050919050565b7f4e487b7100000000000000000000000000000000000000000000000000000000600052604160045260246000fd5b7f4e487b7100000000000000000000000000000000000000000000000000000000600052602260045260246000fd5b60006002820490506001821680620002d857607f821691505b602082108103620002ee57620002ed62000290565b5b50919050565b60008190508160005260206000209050919050565b60006020601f8301049050919050565b600082821b905092915050565b600060088302620003587fffffffffffffffffffffffffffffffffffffffffffffffffffffffffffffffff8262000319565b62000364868362000319565b95508019841693508086168417925050509392505050565b6000819050919050565b6000819050919050565b6000620003b1620003ab620003a5846200037c565b62000386565b6200037c565b9050919050565b6000819050919050565b620003cd8362000390565b620003e5620003dc82620003b8565b84845462000326565b825550505050565b600090565b620003fc620003ed565b62000409818484620003c2565b505050565b5b81811015620004315762000425600082620003f2565b6001810190506200040f565b5050565b601f82111562000480576200044a81620002f4565b620004558462000309565b8101602085101562000465578190505b6200047d620004748562000309565b8301826200040e565b50505b505050565b600082821c905092915050565b6000620004a56000198460080262000485565b1980831691505092915050565b6000620004c0838362000492565b9150826002028217905092915050565b620004db8262000256565b67ffffffffffffffff811115620004f757620004f662000261565b5b620005038254620002bf565b6200051082828562000435565b600060209050601f83116001811462000548576000841562000533578287015190505b6200053f8582620004b2565b865550620005af565b601f1984166200055886620002f4565b60005b8281101562000582578489015182556001820191506020850194506020810190506200055b565b86831015620005a257848901516200059e601f89168262000492565b8355505b6001600288020188555050505b505050505050565b600073ffffffffffffffffffffffffffffffffffffffff82169050919050565b6000620005e482620005b7565b9050919050565b620005f681620005d7565b82525050565b6000602082019050620006136000830184620005eb565b92915050565b612c0e80620006296000396000f3fe608060405234801561001057600080fd5b50600436106101165760003560e01c8063759f89c2116100a2578063b88d4fde11610071578063b88d4fde146102cb578063c87b56dd146102e7578063ca8a7d5e14610317578063e985e9c514610347578063f2fde38b1461037757610116565b8063759f89c2146102575780638da5cb5b1461027357806395d89b4114610291578063a22cb465146102af57610116565b806323b872dd116100e957806323b872dd146101b557806342842e0e146101d15780636352211e146101ed57806370a082311461021d578063715018a61461024d57610116565b806301ffc9a71461011b57806306fdde031461014b578063081812fc14610169578063095ea7b314610199575b600080fd5b61013560048036038101906101309190611ceb565b610393565b6040516101429190611d33565b60405180910390f35b6101536103f4565b6040516101609190611dde565b60405180910390f35b610183600480360381019061017e9190611e36565b610486565b6040516101909190611ea4565b60405180910390f35b6101b360048036038101906101ae9190611eeb565b6104a2565b005b6101cf60048036038101906101ca9190611f2b565b6104e7565b005b6101eb60048036038101906101e69190611f2b565b61052d565b005b61020760048036038101906102029190611e36565b61054d565b6040516102149190611ea4565b60405180910390f35b61023760048036038101906102329190611f7e565b61055f565b6040516102449190611fba565b60405180910390f35b610255610619565b005b610271600480360381019061026c919061210a565b61062d565b005b61027b610902565b6040516102889190611ea4565b60405180910390f35b61029961092c565b6040516102a69190611dde565b60405180910390f35b6102c960048036038101906102c491906121b9565b6109be565b005b6102e560048036038101906102e0919061229a565b610a03565b005b61030160048036038101906102fc9190611e36565b610a20565b60405161030e9190611dde565b60405180910390f35b610331600480360381019061032c9190611f7e565b610b33565b60405161033e91906123db565b60405180910390f35b610361600480360381019061035c91906123fd565b610c20565b60405161036e9190611d33565b60405180910390f35b610391600480360381019061038c9190611f7e565b610cb4565b005b6000634906490660e01b7bffffffffffffffffffffffffffffffffffffffffffffffffffffffff1916827bffffffffffffffffffffffffffffffffffffffffffffffffffffffff191614806103ed57506103ec82610d3a565b5b9050919050565b6060600080546104039061246c565b80601f016020809104026020016040519081016040528092919081815260200182805461042f9061246c565b801561047c5780601f106104515761010080835404028352916020019161047c565b820191906000526020600020905b81548152906001019060200180831161045f57829003601f168201915b5050505050905090565b600061049182610e1c565b5061049b82610ea4565b9050919050565b60006104e3576040517f08c379a00000000000000000000000000000000000000000000000000000000081526004016104da906124e9565b60405180910390fd5b5050565b6000610528576040517f08c379a000000000000000000000000000000000000000000000000000000000815260040161051f906124e9565b60405180910390fd5b505050565b61054883838360405180602001604052806000815250610a03565b505050565b600061055882610e1c565b9050919050565b60008073ffffffffffffffffffffffffffffffffffffffff168273ffffffffffffffffffffffffffffffffffffffff16036105d25760006040517f89c62b640000000000000000000000000000000000000000000000000000000081526004016105c99190611ea4565b60405180910390fd5b600360008373ffffffffffffffffffffffffffffffffffffffff1673ffffffffffffffffffffffffffffffffffffffff168152602001908152602001600020549050919050565b610621610ee1565b61062b6000610f68565b565b610635610ee1565b600061064285858561102e565b9050600a600082815260200190815260200160002060009054906101000a900460ff16156106a5576040517f08c379a000000000000000000000000000000000000000000000000000000000815260040161069c9061257b565b60405180910390fd5b600960029054906101000a900460ff1660ff16600b60008773ffffffffffffffffffffffffffffffffffffffff1673ffffffffffffffffffffffffffffffffffffffff16815260200190815260200160002060009054906101000a900460ff1660ff1603610748576040517f08c379a000000000000000000000000000000000000000000000000000000000815260040161073f906125e7565b60405180910390fd5b600960019054906101000a900460ff1660ff16600b60008673ffffffffffffffffffffffffffffffffffffffff1673ffffffffffffffffffffffffffffffffffffffff16815260200190815260200160002060009054906101000a900460ff1660ff16036107eb576040517f08c379a00000000000000000000000000000000000000000000000000000000081526004016107e290612653565b60405180910390fd5b60006107f5611067565b90506000610801611067565b905061080d8783611085565b61081782856110a3565b600960019054906101000a900460ff16600b60008973ffffffffffffffffffffffffffffffffffffffff1673ffffffffffffffffffffffffffffffffffffffff16815260200190815260200160002060006101000a81548160ff021916908360ff1602179055506108888682611085565b61089281856110a3565b600960029054906101000a900460ff16600b60008873ffffffffffffffffffffffffffffffffffffffff1673ffffffffffffffffffffffffffffffffffffffff16815260200190815260200160002060006101000a81548160ff021916908360ff16021790555050505050505050565b6000600760009054906101000a900473ffffffffffffffffffffffffffffffffffffffff16905090565b60606001805461093b9061246c565b80601f01602080910402602001604051908101604052809291908181526020018280546109679061246c565b80156109b45780601f10610989576101008083540402835291602001916109b4565b820191906000526020600020905b81548152906001019060200180831161099757829003601f168201915b5050505050905090565b60006109ff576040517f08c379a00000000000000000000000000000000000000000000000000000000081526004016109f6906124e9565b60405180910390fd5b5050565b610a0e8484846104e7565b610a1a848484846110ff565b50505050565b6060610a2b82610e1c565b506000600660008481526020019081526020016000208054610a4c9061246c565b80601f0160208091040260200160405190810160405280929190818152602001828054610a789061246c565b8015610ac55780601f10610a9a57610100808354040283529160200191610ac5565b820191906000526020600020905b815481529060010190602001808311610aa857829003601f168201915b505050505090506000610ad66112b6565b90506000815103610aeb578192505050610b2e565b600082511115610b20578082604051602001610b089291906126af565b60405160208183030381529060405292505050610b2e565b610b29846112cd565b925050505b919050565b60606000610b408361055f565b67ffffffffffffffff811115610b5957610b58611fdf565b5b604051908082528060200260200182016040528015610b875781602001602082028036833780820191505090505b5090506000805b600854811015610c15578473ffffffffffffffffffffffffffffffffffffffff16610bb88261054d565b73ffffffffffffffffffffffffffffffffffffffff1603610c025780838381518110610be757610be66126d3565b5b6020026020010181815250508180610bfe90612731565b9250505b8080610c0d90612731565b915050610b8e565b508192505050919050565b6000600560008473ffffffffffffffffffffffffffffffffffffffff1673ffffffffffffffffffffffffffffffffffffffff16815260200190815260200160002060008373ffffffffffffffffffffffffffffffffffffffff1673ffffffffffffffffffffffffffffffffffffffff16815260200190815260200160002060009054906101000a900460ff16905092915050565b610cbc610ee1565b600073ffffffffffffffffffffffffffffffffffffffff168173ffffffffffffffffffffffffffffffffffffffff1603610d2e5760006040517f1e4fbdf7000000000000000000000000000000000000000000000000000000008152600401610d259190611ea4565b60405180910390fd5b610d3781610f68565b50565b60007f80ac58cd000000000000000000000000000000000000000000000000000000007bffffffffffffffffffffffffffffffffffffffffffffffffffffffff1916827bffffffffffffffffffffffffffffffffffffffffffffffffffffffff19161480610e0557507f5b5e139f000000000000000000000000000000000000000000000000000000007bffffffffffffffffffffffffffffffffffffffffffffffffffffffff1916827bffffffffffffffffffffffffffffffffffffffffffffffffffffffff1916145b80610e155750610e1482611336565b5b9050919050565b600080610e28836113a0565b9050600073ffffffffffffffffffffffffffffffffffffffff168173ffffffffffffffffffffffffffffffffffffffff1603610e9b57826040517f7e273289000000000000000000000000000000000000000000000000000000008152600401610e929190611fba565b60405180910390fd5b80915050919050565b60006004600083815260200190815260200160002060009054906101000a900473ffffffffffffffffffffffffffffffffffffffff169050919050565b610ee96113dd565b73ffffffffffffffffffffffffffffffffffffffff16610f07610902565b73ffffffffffffffffffffffffffffffffffffffff1614610f6657610f2a6113dd565b6040517f118cdaa7000000000000000000000000000000000000000000000000000000008152600401610f5d9190611ea4565b60405180910390fd5b565b6000600760009054906101000a900473ffffffffffffffffffffffffffffffffffffffff16905081600760006101000a81548173ffffffffffffffffffffffffffffffffffffffff021916908373ffffffffffffffffffffffffffffffffffffffff1602179055508173ffffffffffffffffffffffffffffffffffffffff168173ffffffffffffffffffffffffffffffffffffffff167f8be0079c531659141344cd1fd0a4f28419497f9722a3daafe3b4186f6b6457e060405160405180910390a35050565b6000838383604051602001611045939291906127e2565b6040516020818303038152906040528051906020012060001c90509392505050565b60006008600081548092919061107c90612731565b91905055905090565b61109f8282604051806020016040528060008152506113e5565b5050565b806006600084815260200190815260200160002090816110c391906129cb565b507ff8e1a15aba9398e019f0b49df1a4fde98ee17ae345cb5f6b5e2c27f5033e8ce7826040516110f39190611fba565b60405180910390a15050565b60008373ffffffffffffffffffffffffffffffffffffffff163b11156112b0578273ffffffffffffffffffffffffffffffffffffffff1663150b7a026111436113dd565b8685856040518563ffffffff1660e01b81526004016111659493929190612af2565b6020604051808303816000875af19250505080156111a157506040513d601f19601f8201168201806040525081019061119e9190612b53565b60015b611225573d80600081146111d1576040519150601f19603f3d011682016040523d82523d6000602084013e6111d6565b606091505b50600081510361121d57836040517f64a0ae920000000000000000000000000000000000000000000000000000000081526004016112149190611ea4565b60405180910390fd5b805181602001fd5b63150b7a0260e01b7bffffffffffffffffffffffffffffffffffffffffffffffffffffffff1916817bffffffffffffffffffffffffffffffffffffffffffffffffffffffff1916146112ae57836040517f64a0ae920000000000000000000000000000000000000000000000000000000081526004016112a59190611ea4565b60405180910390fd5b505b50505050565b606060405180602001604052806000815250905090565b60606112d882610e1c565b5060006112e36112b6565b90506000815111611303576040518060200160405280600081525061132e565b8061130d84611401565b60405160200161131e9291906126af565b6040516020818303038152906040525b915050919050565b60007f01ffc9a7000000000000000000000000000000000000000000000000000000007bffffffffffffffffffffffffffffffffffffffffffffffffffffffff1916827bffffffffffffffffffffffffffffffffffffffffffffffffffffffff1916149050919050565b60006002600083815260200190815260200160002060009054906101000a900473ffffffffffffffffffffffffffffffffffffffff169050919050565b600033905090565b6113ef83836114cf565b6113fc60008484846110ff565b505050565b606060006001611410846115c8565b01905060008167ffffffffffffffff81111561142f5761142e611fdf565b5b6040519080825280601f01601f1916602001820160405280156114615781602001600182028036833780820191505090505b509050600082602001820190505b6001156114c4578080600190039150507f3031323334353637383961626364656600000000000000000000000000000000600a86061a8153600a85816114b8576114b7612b80565b5b0494506000850361146f575b819350505050919050565b600073ffffffffffffffffffffffffffffffffffffffff168273ffffffffffffffffffffffffffffffffffffffff16036115415760006040517f64a0ae920000000000000000000000000000000000000000000000000000000081526004016115389190611ea4565b60405180910390fd5b600061154f8383600061171b565b9050600073ffffffffffffffffffffffffffffffffffffffff168173ffffffffffffffffffffffffffffffffffffffff16146115c35760006040517f73c6ac6e0000000000000000000000000000000000000000000000000000000081526004016115ba9190611ea4565b60405180910390fd5b505050565b600080600090507a184f03e93ff9f4daa797ed6e38ed64bf6a1f0100000000000000008310611626577a184f03e93ff9f4daa797ed6e38ed64bf6a1f010000000000000000838161161c5761161b612b80565b5b0492506040810190505b6d04ee2d6d415b85acef81000000008310611663576d04ee2d6d415b85acef8100000000838161165957611658612b80565b5b0492506020810190505b662386f26fc10000831061169257662386f26fc10000838161168857611687612b80565b5b0492506010810190505b6305f5e10083106116bb576305f5e10083816116b1576116b0612b80565b5b0492506008810190505b61271083106116e05761271083816116d6576116d5612b80565b5b0492506004810190505b6064831061170357606483816116f9576116f8612b80565b5b0492506002810190505b600a8310611712576001810190505b80915050919050565b600080611727846113a0565b9050600073ffffffffffffffffffffffffffffffffffffffff168373ffffffffffffffffffffffffffffffffffffffff161461176957611768818486611935565b5b600073ffffffffffffffffffffffffffffffffffffffff168173ffffffffffffffffffffffffffffffffffffffff16146117fa576117ab6000856000806119f9565b6001600360008373ffffffffffffffffffffffffffffffffffffffff1673ffffffffffffffffffffffffffffffffffffffff168152602001908152602001600020600082825403925050819055505b600073ffffffffffffffffffffffffffffffffffffffff168573ffffffffffffffffffffffffffffffffffffffff161461187d576001600360008773ffffffffffffffffffffffffffffffffffffffff1673ffffffffffffffffffffffffffffffffffffffff168152602001908152602001600020600082825401925050819055505b846002600086815260200190815260200160002060006101000a81548173ffffffffffffffffffffffffffffffffffffffff021916908373ffffffffffffffffffffffffffffffffffffffff160217905550838573ffffffffffffffffffffffffffffffffffffffff168273ffffffffffffffffffffffffffffffffffffffff167fddf252ad1be2c89b69c2b068fc378daa952ba7f163c4a11628f55a4df523b3ef60405160405180910390a4809150509392505050565b611940838383611bbe565b6119f457600073ffffffffffffffffffffffffffffffffffffffff168373ffffffffffffffffffffffffffffffffffffffff16036119b557806040517f7e2732890000000000000000000000000000000000000000000000000000000081526004016119ac9190611fba565b60405180910390fd5b81816040517f177e802f0000000000000000000000000000000000000000000000000000000081526004016119eb929190612baf565b60405180910390fd5b505050565b8080611a325750600073ffffffffffffffffffffffffffffffffffffffff168273ffffffffffffffffffffffffffffffffffffffff1614155b15611b66576000611a4284610e1c565b9050600073ffffffffffffffffffffffffffffffffffffffff168373ffffffffffffffffffffffffffffffffffffffff1614158015611aad57508273ffffffffffffffffffffffffffffffffffffffff168173ffffffffffffffffffffffffffffffffffffffff1614155b8015611ac05750611abe8184610c20565b155b15611b0257826040517fa9fbf51f000000000000000000000000000000000000000000000000000000008152600401611af99190611ea4565b60405180910390fd5b8115611b6457838573ffffffffffffffffffffffffffffffffffffffff168273ffffffffffffffffffffffffffffffffffffffff167f8c5be1e5ebec7d5bd14f71427d1e84f3dd0314c0f7b2291e5b200ac8c7c3b92560405160405180910390a45b505b836004600085815260200190815260200160002060006101000a81548173ffffffffffffffffffffffffffffffffffffffff021916908373ffffffffffffffffffffffffffffffffffffffff16021790555050505050565b60008073ffffffffffffffffffffffffffffffffffffffff168373ffffffffffffffffffffffffffffffffffffffff1614158015611c7657508273ffffffffffffffffffffffffffffffffffffffff168473ffffffffffffffffffffffffffffffffffffffff161480611c375750611c368484610c20565b5b80611c7557508273ffffffffffffffffffffffffffffffffffffffff16611c5d83610ea4565b73ffffffffffffffffffffffffffffffffffffffff16145b5b90509392505050565b6000604051905090565b600080fd5b600080fd5b60007fffffffff0000000000000000000000000000000000000000000000000000000082169050919050565b611cc881611c93565b8114611cd357600080fd5b50565b600081359050611ce581611cbf565b92915050565b600060208284031215611d0157611d00611c89565b5b6000611d0f84828501611cd6565b91505092915050565b60008115159050919050565b611d2d81611d18565b82525050565b6000602082019050611d486000830184611d24565b92915050565b600081519050919050565b600082825260208201905092915050565b60005b83811015611d88578082015181840152602081019050611d6d565b60008484015250505050565b6000601f19601f8301169050919050565b6000611db082611d4e565b611dba8185611d59565b9350611dca818560208601611d6a565b611dd381611d94565b840191505092915050565b60006020820190508181036000830152611df88184611da5565b905092915050565b6000819050919050565b611e1381611e00565b8114611e1e57600080fd5b50565b600081359050611e3081611e0a565b92915050565b600060208284031215611e4c57611e4b611c89565b5b6000611e5a84828501611e21565b91505092915050565b600073ffffffffffffffffffffffffffffffffffffffff82169050919050565b6000611e8e82611e63565b9050919050565b611e9e81611e83565b82525050565b6000602082019050611eb96000830184611e95565b92915050565b611ec881611e83565b8114611ed357600080fd5b50565b600081359050611ee581611ebf565b92915050565b60008060408385031215611f0257611f01611c89565b5b6000611f1085828601611ed6565b9250506020611f2185828601611e21565b9150509250929050565b600080600060608486031215611f4457611f43611c89565b5b6000611f5286828701611ed6565b9350506020611f6386828701611ed6565b9250506040611f7486828701611e21565b9150509250925092565b600060208284031215611f9457611f93611c89565b5b6000611fa284828501611ed6565b91505092915050565b611fb481611e00565b82525050565b6000602082019050611fcf6000830184611fab565b92915050565b600080fd5b600080fd5b7f4e487b7100000000000000000000000000000000000000000000000000000000600052604160045260246000fd5b61201782611d94565b810181811067ffffffffffffffff8211171561203657612035611fdf565b5b80604052505050565b6000612049611c7f565b9050612055828261200e565b919050565b600067ffffffffffffffff82111561207557612074611fdf565b5b61207e82611d94565b9050602081019050919050565b82818337600083830152505050565b60006120ad6120a88461205a565b61203f565b9050828152602081018484840111156120c9576120c8611fda565b5b6120d484828561208b565b509392505050565b600082601f8301126120f1576120f0611fd5565b5b813561210184826020860161209a565b91505092915050565b6000806000806080858703121561212457612123611c89565b5b600061213287828801611ed6565b945050602061214387828801611ed6565b935050604061215487828801611e21565b925050606085013567ffffffffffffffff81111561217557612174611c8e565b5b612181878288016120dc565b91505092959194509250565b61219681611d18565b81146121a157600080fd5b50565b6000813590506121b38161218d565b92915050565b600080604083850312156121d0576121cf611c89565b5b60006121de85828601611ed6565b92505060206121ef858286016121a4565b9150509250929050565b600067ffffffffffffffff82111561221457612213611fdf565b5b61221d82611d94565b9050602081019050919050565b600061223d612238846121f9565b61203f565b90508281526020810184848401111561225957612258611fda565b5b61226484828561208b565b509392505050565b600082601f83011261228157612280611fd5565b5b813561229184826020860161222a565b91505092915050565b600080600080608085870312156122b4576122b3611c89565b5b60006122c287828801611ed6565b94505060206122d387828801611ed6565b93505060406122e487828801611e21565b925050606085013567ffffffffffffffff81111561230557612304611c8e565b5b6123118782880161226c565b91505092959194509250565b600081519050919050565b600082825260208201905092915050565b6000819050602082019050919050565b61235281611e00565b82525050565b60006123648383612349565b60208301905092915050565b6000602082019050919050565b60006123888261231d565b6123928185612328565b935061239d83612339565b8060005b838110156123ce5781516123b58882612358565b97506123c083612370565b9250506001810190506123a1565b5085935050505092915050565b600060208201905081810360008301526123f5818461237d565b905092915050565b6000806040838503121561241457612413611c89565b5b600061242285828601611ed6565b925050602061243385828601611ed6565b9150509250929050565b7f4e487b7100000000000000000000000000000000000000000000000000000000600052602260045260246000fd5b6000600282049050600182168061248457607f821691505b6020821081036124975761249661243d565b5b50919050565b7f4e6f6e2d7472616e7366657261626c6520746f6b656e00000000000000000000600082015250565b60006124d3601683611d59565b91506124de8261249d565b602082019050919050565b60006020820190508181036000830152612502816124c6565b9050919050565b7f5342542063616e20626520697373756564206f6e6c79206f6e636520746f206160008201527f207573657220616e64207365727669636520636f6d62696e6174696f6e310000602082015250565b6000612565603e83611d59565b915061257082612509565b604082019050919050565b6000602082019050818103600083015261259481612558565b9050919050565b7f557365722063616e277420616374206173206120636f6d70616e792100000000600082015250565b60006125d1601c83611d59565b91506125dc8261259b565b602082019050919050565b60006020820190508181036000830152612600816125c4565b9050919050565b7f436f6d70616e792063616e277420616374206173206120757365722100000000600082015250565b600061263d601c83611d59565b915061264882612607565b602082019050919050565b6000602082019050818103600083015261266c81612630565b9050919050565b600081905092915050565b600061268982611d4e565b6126938185612673565b93506126a3818560208601611d6a565b80840191505092915050565b60006126bb828561267e565b91506126c7828461267e565b91508190509392505050565b7f4e487b7100000000000000000000000000000000000000000000000000000000600052603260045260246000fd5b7f4e487b7100000000000000000000000000000000000000000000000000000000600052601160045260246000fd5b600061273c82611e00565b91507fffffffffffffffffffffffffffffffffffffffffffffffffffffffffffffffff820361276e5761276d612702565b5b600182019050919050565b60008160601b9050919050565b600061279182612779565b9050919050565b60006127a382612786565b9050919050565b6127bb6127b682611e83565b612798565b82525050565b6000819050919050565b6127dc6127d782611e00565b6127c1565b82525050565b60006127ee82866127aa565b6014820191506127fe82856127aa565b60148201915061280e82846127cb565b602082019150819050949350505050565b60008190508160005260206000209050919050565b60006020601f8301049050919050565b600082821b905092915050565b6000600883026128817fffffffffffffffffffffffffffffffffffffffffffffffffffffffffffffffff82612844565b61288b8683612844565b95508019841693508086168417925050509392505050565b6000819050919050565b60006128c86128c36128be84611e00565b6128a3565b611e00565b9050919050565b6000819050919050565b6128e2836128ad565b6128f66128ee826128cf565b848454612851565b825550505050565b600090565b61290b6128fe565b6129168184846128d9565b505050565b5b8181101561293a5761292f600082612903565b60018101905061291c565b5050565b601f82111561297f576129508161281f565b61295984612834565b81016020851015612968578190505b61297c61297485612834565b83018261291b565b50505b505050565b600082821c905092915050565b60006129a260001984600802612984565b1980831691505092915050565b60006129bb8383612991565b9150826002028217905092915050565b6129d482611d4e565b67ffffffffffffffff8111156129ed576129ec611fdf565b5b6129f7825461246c565b612a0282828561293e565b600060209050601f831160018114612a355760008415612a23578287015190505b612a2d85826129af565b865550612a95565b601f198416612a438661281f565b60005b82811015612a6b57848901518255600182019150602085019450602081019050612a46565b86831015612a885784890151612a84601f891682612991565b8355505b6001600288020188555050505b505050505050565b600081519050919050565b600082825260208201905092915050565b6000612ac482612a9d565b612ace8185612aa8565b9350612ade818560208601611d6a565b612ae781611d94565b840191505092915050565b6000608082019050612b076000830187611e95565b612b146020830186611e95565b612b216040830185611fab565b8181036060830152612b338184612ab9565b905095945050505050565b600081519050612b4d81611cbf565b92915050565b600060208284031215612b6957612b68611c89565b5b6000612b7784828501612b3e565b91505092915050565b7f4e487b7100000000000000000000000000000000000000000000000000000000600052601260045260246000fd5b6000604082019050612bc46000830185611e95565b612bd16020830184611fab565b939250505056fea264697066735822122085aac312e5f277f33cc51dd027dcba65e5244d85b3bbf45a05525e4d7637adc564736f6c63430008140033",
  "linkReferences": {},
  "deployedLinkReferences": {}
}